:1000000072C000009EC000009CC000009AC00000AA
:1000100098C0000096C0000094C0000092C000008C
:1000200090C000008EC000008CC000008AC000009C
:1000300088C0000086C0000084C0000082C00000AC
:1000400080C000007EC000007CC000007AC00000BC
:1000500078C0000076C0000074C00000C0C5000079
:1000600070C0000015C20000D9C200006AC00000C4
:1000700068C0000066C0000064C0000062C00000EC
:1000800060C000005EC000005CC000005AC00000FC
:100090002AC2000002C3000054C0000052C0000089
:1000A00050C000004EC000004CC000004AC000001C
:1000B00048C0000046C0000044C0000042C000002C
:1000C00040C000003EC000003CC0000037C200003D
:1000D00023C3000036C000005DC200005CC3000006
:1000E00030C00000880411241FBECFEFD1E2DEBF74
:1000F000CDBF00E00CBF12E0A0E0B2E0E6E8FDE01A
:1001000000E00BBF02C007900D92A634B107D9F7EB
:1001100017E0A6E4B2E001C01D92A13FB107E1F7EC
:1001200010E0C6EED0E000E005C022970109FE0114
:100130000BBF23D6C43ED10780E00807B1F706D530
:1001400020C65ECF40E052EC61E070E089EA95E0C5
:1001500061D340E051EE60E070E08AE895E05AD368
:1001600040E051EE60E070E08BE695E053D360E054
:1001700072E089EA95E02BC51F93CF93DF938091BE
:10018000480281110FC017C0C12FD0E0C45BDD4F02
:1001900068818AE895E01CD568818BE695E018D5E2
:1001A0001F5F01C010E080914902811768F710922B
:1001B000490210924802809147028823C1F064E20C
:1001C00072E089EA95E003D5C0E009C0EC2FF0E0C9
:1001D000E45BFB4F608189EA95E0FAD4CF5F8091C0
:1001E0004B028C1798F710924B02109247028091A5
:1001F00046028823C1F06DE272E089EA95E0E7D417
:10020000C0E009C0EC2FF0E0E45BFC4F608189EABC
:1002100095E0DED4CF5F80914A028C1798F7109258
:100220004A0210924602DF91CF911F9108951F93C9
:10023000CF93DF9311E089EA95E076D0892BF1F036
:100240008091480281111AC0C0914902D0E089EA28
:1002500095E099D0C45BDD4F8883E0914902EE239D
:1002600051F3F0E0E45BFD4F80818A3021F7319754
:1002700080818D3001F710934802DDCFDF91CF915F
:100280001F9108951F93CF93DF9311E08AE895E0C3
:100290004BD0892BF1F08091470281111AC0C09197
:1002A0004B02D0E08AE895E06ED0C45BDB4F8883D8
:1002B000E0914B02EE2351F3F0E0E45BFB4F8081D1
:1002C0008A3021F7319780818D3001F710934802F1
:1002D000DDCFDF91CF911F9108951F93CF93DF93CF
:1002E00011E08BE695E020D0892BD1F0C0914A0235
:1002F000D0E08BE695E047D0C45BDC4F8883E0918B
:100300004A02E23070F3F0E0E45BFC4F80818A3017
:1003100041F7329780818D3021F710934802E1CF69
:10032000DF91CF911F910895FC0184859585FC0193
:10033000E05CFF4F20813181FC01EE5BFF4F80814B
:100340009181281B390B2F733327C9010895FC01B4
:1003500084859585FC01E05CFF4F40815181FC0163
:10036000EE5BFF4F208131814217530741F001902E
:10037000F081E02DE80FF91F208130E002C02FEF5F
:100380003FEFC9010895FC0184859585FC01E05C7F
:10039000FF4F40815181FC01EE5BFF4F2081318195
:1003A0004217530781F0A081B181A80FB91F8C912A
:1003B000208131812F5F3F4F2F733327318320837B
:1003C000282F30E002C02FEF3FEFC9010895FC0154
:1003D00086859785FC01E05CFF4FDC01AE5BBF4F7B
:1003E000408151812D913C91119742175307C1F7DC
:1003F0000895CF93DF93FC0186859785DC01A05C8F
:10040000BF4F2D913C9111972F5F3F4F2F73332793
:10041000EC01CE5BDF4F4881598124173507D9F3B2
:100420000D90BC91A02DA80FB91F6C93A685B78520
:10043000A05CBF4F11963C932E93A689B7892C914F
:1004400081E090E0058C02C0880F991F0A94E2F7C2
:10045000282B2C9381E090E0DF91CF910895FB0150
:10046000E05CFF4F208131812F5F3F4F2F73332797
:10047000DB01AE5BBF4F4D915C912417350739F01E
:10048000A081B181A60FB71F8C933183208308957B
:100490001F920F920FB60F9211240BB60F922F934B
:1004A0003F934F935F936F937F938F939F93AF93FC
:1004B000BF93EF93FF938091C60064EA77E0CFDFAC
:1004C000FF91EF91BF91AF919F918F917F916F912C
:1004D0005F914F913F912F910F900BBE0F900FBEE8
:1004E0000F901F9018951F920F920FB60F92112424
:1004F0000BB60F922F933F934F935F936F937F931E
:100500008F939F93AF93BF93EF93FF938091CE0010
:100510006CE177E0A4DFFF91EF91BF91AF919F91E4
:100520008F917F916F915F914F913F912F910F909C
:100530000BBE0F900FBE0F901F9018951F920F9239
:100540000FB60F9211240BB60F922F933F934F9338
:100550005F936F937F938F939F93AF93BF93EF932B
:10056000FF938091D60064E976E079DFFF91EF9107
:10057000BF91AF919F918F917F916F915F914F91BB
:100580003F912F910F900BBE0F900FBE0F901F90B9
:10059000189508951F920F920FB60F9211240BB663
:1005A0000F922F933F934F935F936F937F938F930C
:1005B0009F93AF93BF93EF93FF93809136016CE0CD
:1005C00076E04DDFFF91EF91BF91AF919F918F91B9
:1005D0007F916F915F914F913F912F910F900BBE43
:1005E0000F900FBE0F901F90189589EA95E09CDE42
:1005F000892B09F01CDE8AE895E096DE892B09F04C
:1006000041DE8BE695E090DE892B09F066DE8CE416
:1006100095E08ADE892B09F0BCCF08951F920F92D6
:100620000FB60F9211240BB60F922F933F938F9317
:100630009F93EF93FF932091A0073091A1078091A2
:10064000A2079091A3072817390731F48091C100C0
:100650008F7D8093C10014C0E091A207F091A307A1
:10066000E05AF84F20818091A2079091A30701964C
:100670008F7399279093A3078093A2072093C600B6
:10068000FF91EF919F918F913F912F910F900BBE12
:100690000F900FBE0F901F9018951F920F920FB6DC
:1006A0000F9211240BB60F922F933F938F939F932A
:1006B000EF93FF93209118073091190780911A0743
:1006C00090911B072817390731F48091C9008F7D5D
:1006D0008093C90014C0E0911A07F0911B07E852FB
:1006E000F94F208180911A0790911B0701968F7313
:1006F000992790931B0780931A072093CE00FF91B0
:10070000EF919F918F913F912F910F900BBE0F9082
:100710000FBE0F901F9018951F920F920FB60F9259
:1007200011240BB60F922F933F938F939F93EF93C8
:10073000FF932091900630919106809192069091BE
:1007400093062817390731F48091D1008F7D80936B
:10075000D10014C0E0919206F0919306E05BF94F4E
:100760002081809192069091930601968F7399272C
:1007700090939306809392062093D600FF91EF9179
:100780009F918F913F912F910F900BBE0F900FBEB5
:100790000F901F9018951F920F920FB60F92112471
:1007A0000BB60F922F933F938F939F93EF93FF93EB
:1007B000209108063091090680910A0690910B0657
:1007C0002817390731F4809131018F7D80933101F1
:1007D00014C0E0910A06F0910B06E853FA4F20810D
:1007E00080910A0690910B0601968F73992790933A
:1007F0000B0680930A0620933601FF91EF919F919B
:100800008F913F912F910F900BBE0F900FBE0F90C5
:100810001F901895CF92DF92EF92FF92CF93DF93C4
:10082000EC016A017B01411581EE580761057105F4
:10083000F1F0EC89FD8981E090E00E8C02C0880F18
:10084000991F0A94E2F7808360E079E08DE390E0FD
:10085000A701960170D221503109410951095695DD
:10086000479537952795211580E1380790F0EC8959
:10087000FD89108260E874E88EE190E0A70196019E
:100880005AD221503109410951095695479537955A
:100890002795E889F9893083EA89FB892083EE89E5
:1008A000FF89408181E090E09C010A8C02C0220F08
:1008B000331F0A94E2F7422B4083EE89FF8940817F
:1008C0009C010B8C02C0220F331F0A94E2F7422BCB
:1008D0004083EE89FF8940819C010C8C02C0220F6D
:1008E000331F0A94E2F7422B4083EE89FF8920816F
:1008F0000D8C02C0880F991F0A94E2F7809582231D
:100900008083DF91CF91FF90EF90DF90CF9008959B
:10091000CF931092AC051092AB0588EE93E0A0E067
:10092000B0E08093AD059093AE05A093AF05B09372
:10093000B0052AE332E03093AA052093A90544EAE2
:1009400057E05093B6054093B50540E657E0509305
:10095000B8054093B70545EC50E05093BA05409375
:10096000B90544EC50E05093BC054093BB0540EC06
:1009700050E05093BE054093BD0541EC50E05093CC
:10098000C0054093BF0546EC50E05093C20540932C
:10099000C105C4E0C093C305F3E0F093C405E7E0EC
:1009A000E093C50575E07093C60561E06093C705E7
:1009B00010928D0510928C0580938E0590938F0573
:1009C000A0939005B093910530938B0520938A05F1
:1009D0004CE157E0509397054093960548ED56E05B
:1009E00050939905409398054DEC50E050939B052A
:1009F00040939A054CEC50E050939D0540939C0524
:100A000048EC50E050939F0540939E0549EC50E020
:100A10005093A1054093A0054EEC50E05093A305E0
:100A20004093A205C093A405F093A505E093A60505
:100A30007093A7056093A80510926E0510926D053E
:100A400080936F0590937005A0937105B093720524
:100A500030936C0520936B0544E956E0509378057C
:100A60004093770540E556E050937A054093790529
:100A700045ED50E050937C0540937B0544ED50E0FC
:100A800050937E0540937D0540ED50E050938005E6
:100A900040937F0541ED50E05093820540938105DE
:100AA00046ED50E05093840540938305C09385053F
:100AB000F0938605E0938705709388056093890518
:100AC00010924F0510924E0580935005909351055A
:100AD000A0935205B093530530934D0520934C05D8
:100AE0008CE096E0909359058093580588EC95E04A
:100AF00090935B0580935A0585E391E090935D05A3
:100B000080935C0584E391E090935F0580935E059C
:100B100080E391E0909361058093600581E391E02B
:100B2000909363058093620586E391E09093650559
:100B300080936405C0936605F0936705E0936805AC
:100B40007093690560936A05CF91089592D0FADA9F
:100B5000C5EFD2E011DB2097E9F347DDFBCFCF9261
:100B6000DF92EF92FF920F931F93CF93DF936C016D
:100B7000EB017A01E60EF71E00E010E00BC0699170
:100B8000D601ED91FC910190F081E02DC6011995FF
:100B9000080F191FCE15DF0591F7C801DF91CF911E
:100BA0001F910F91FF90EF90DF90CF900895DB01A0
:100BB0000D900020E9F7AD0141505109461B570B3C
:100BC000DC01ED91FC910280F381E02D1994EFCFCF
:100BD000DC01ED91FC910190F081E02D19941F92C0
:100BE0000F920FB60F9211242F933F938F939F93E1
:100BF000AF93BF938091E8079091E907A091EA072E
:100C0000B091EB073091F007232F2D5F2D3720F4A3
:100C10000196A11DB11D05C0232F2A570296A11DC3
:100C2000B11D2093F0078093E8079093E907A09304
:100C3000EA07B093EB078091EC079091ED07A09144
:100C4000EE07B091EF070196A11DB11D8093EC074F
:100C50009093ED07A093EE07B093EF07BF91AF918C
:100C60009F918F913F912F910F900FBE0F901F90EA
:100C70001895789484B5826084BD84B5816084BD04
:100C800085B5826085BD85B5816085BDEEE6F0E005
:100C9000808181608083E1E8F0E010828081826061
:100CA0008083808181608083E0E8F0E080818160E2
:100CB0008083E1EBF0E0808184608083E0EBF0E012
:100CC000808181608083E1E9F0E0808182608083BF
:100CD000808181608083E0E9F0E0808181608083B1
:100CE000E1EAF0E08081826080838081816080839E
:100CF000E0EAF0E0808181608083E1E2F1E08081E0
:100D000082608083808181608083E0E2F1E0808185
:100D100081608083EAE7F0E0808184608083808165
:100D2000826080838081816080838081806880830D
:100D30001092C1000895A1E21A2EAA1BBB1BFD014F
:100D40000DC0AA1FBB1FEE1FFF1FA217B307E407AA
:100D5000F50720F0A21BB30BE40BF50B661F771F02
:100D6000881F991F1A9469F76095709580959095E2
:100D70009B01AC01BD01CF0108950790F691E02DD4
:060D80001994F894FFCF66
:100D860053657269616C3120616E642053657269C6
:100D9600616C3220746F20757362205365726961CD
:100DA6006C0D0A0073657269616C313A0073657285
:100DB60069616C323A0000000000F901AF05940148
:060DC600C301A701E701D3
:00000001FF
