:100000000C9474000C9495000C9495000C9495003D
:100010000C9495000C9495000C9495000C9495000C
:100020000C9495000C9495000C9495000C949500FC
:100030000C9495000C9495000C9495000C949500EC
:100040000C9495000C9495000C9495000C949500DC
:100050000C9495000C9495000C9495000C949500CC
:100060000C9495000C9437010C9495000C94950019
:100070000C9495000C9495000C9495000C949500AC
:100080000C9495000C9495000C9495000C9495009C
:100090000C9495000C9495000C9495000C9495008C
:1000A0000C9495000C9495000C9495000C9495007C
:1000B0000C9495000C9495000C9495000C9495006C
:1000C0000C9495000C9495000C9495000C9495005C
:1000D0000C9495000C9495000C9495000C9495004C
:1000E0000C9495000C94CF0011241FBECFEFD1E2E9
:1000F000DEBFCDBF00E00CBF12E0A0E0B2E0EEE951
:10010000FCE000E00BBF02C007900D92A833B107DE
:10011000D9F723E0A8E3B2E001C01D92A530B207F1
:10012000E1F70E94BE010C944D060C940000CF93A1
:10013000DF931F921F92CDB7DEB780E190E09A83E4
:10014000898385EC90E029813A81232F3327FC01B4
:10015000208384EC90E02981FC01208381EC90E0F5
:1001600028E1FC01208382EC90E02EE0FC0120835A
:1001700081EC90E021EC30E0F90120812068FC0165
:10018000208389EB90E0FC01108288EB90E028E46A
:10019000FC0120830F900F90DF91CF910895CF93B2
:1001A000DF9300D0CDB7DEB789837B836A838981F3
:1001B0008A3029F460E070E08DE00E94CF0080EC8E
:1001C00090E0FC018081882F90E080729927009751
:1001D000B1F386EC90E02981FC01208380E090E07F
:1001E0000F900F900F90DF91CF910895CF93DF93F1
:1001F0001F92CDB7DEB7898380EC90E0FC0180814F
:10020000882F90E0807299270097B1F386EC90E0F8
:100210002981FC01208380E090E00F90DF91CF9155
:100220000895CF93DF9300D01F92CDB7DEB79B83A5
:100230008A836C8319820EC08981882F90E02A817D
:100240003B81820F931FFC0180810E94F60089810F
:100250008F5F898399818C81981770F380E090E09B
:100260000F900F900F900F90DF91CF9108951F92F4
:100270000F9200905F000F92112400905B000F928C
:100280002F933F934F935F936F938F939F93EF932E
:10029000FF93CF93DF93CDB7DEB786EC90E0FC0100
:1002A00080818A3009F045C080913802482F50E0A3
:1002B00080913902882F90E064E1649F9001659FEE
:1002C000300D1124820F931F835C9D4FFC0110821F
:1002D00080913802482F50E080913902882F90E0B9
:1002E000019764E1649F9001659F300D1124820F96
:1002F000931F835C9D4FFC0180818D30A9F4809118
:100300003802482F50E080913902882F90E0019701
:1003100064E1649F9001659F300D1124820F931F4B
:10032000835C9D4FFC011082809138028F5F809327
:100330003802809139028F5F8093390280913902AF
:10034000843111F410923902809138028A3011F40C
:1003500010923802DF91CF91FF91EF919F918F9191
:100360006F915F914F913F912F910F9000925B00A1
:100370000F9000925F000F901F901895CF93DF931E
:10038000CDB7DEB70E949700789468E08EE092E0E7
:100390000E94110181E080933B0201C00000909116
:1003A0003A02809138029817C9F380913A02282FB7
:1003B00030E044E1429FC001439F900D1124835CD3
:1003C0009D4F0E944406482F80913A02282F30E02A
:1003D00054E1529FC001539F900D1124835C9D4FA7
:1003E000642F0E942C0580913A028F5F80933A021D
:1003F00080913A028A3091F610923A02CFCFCF9391
:10040000DF93CDB7DEB728970FB6F894DEBF0FBEE7
:10041000CDBF8D836E8358874F8319821B821A82CA
:100420008CEA8C8301C0000081E09981983C08F43B
:1004300080E099819F5F9983882341F08EEF9FEF41
:10044000C5C0000003C0000001C000008CEB90E0BC
:1004500024EAFC01208300008CEB90E0FC01808109
:100460008823D4F789EB90E0FC018081887F80931A
:100470003C0280913C02882F90E08031910549F048
:1004800088339105F1F28830910519F08DEF9FEFD7
:100490009DC000008BEB90E02C81FC0120838CEB55
:1004A00090E024E8FC01208300008CEB90E0FC014C
:1004B00080818823D4F789EB90E0FC018081887FDC
:1004C00080933C0280913C02882F90E0803291051D
:1004D00009F4A9CF8833910509F4B5CF8831910586
:1004E00009F06FC000008BEB90E02D81FC012083B0
:1004F0008CEB90E024E8FC01208300008CEB90E082
:10050000FC0180818823D4F789EB90E0FC01808195
:10051000887F80933C0280913C02882F90E080335A
:10052000910509F444C08833910509F48ECF8832CF
:10053000910509F046C0000036C08BEB90E02F819A
:100540003885F9012081FC0120838F8198850196EF
:1005500098878F838CEB90E024E8FC0120830000D7
:100560008CEB90E0FC0180818823D4F789EB90E04C
:10057000FC018081887F80933C0280913C02882F1F
:1005800090E08832910521F080339105C9F00AC0CE
:100590008A819B8101969B838A8300008E81815092
:1005A0008E8301C00EC08E81882339F601C0000001
:1005B0008CEB90E024E9FC0120838A819B8106C0BA
:1005C00000008CEF9FEF9B838A83F2CF28960FB6B3
:1005D000F894DEBF0FBECDBFDF91CF910895CF93CA
:1005E000DF93CDB7DEB729970FB6F894DEBF0FBE05
:1005F000CDBF8E836F83598748871A821C821B82E6
:100600008CEA8D8301C0000081E09A81983C08F457
:1006100080E09A819F5F9A83882361F08FEF9FEF3C
:1006200023C1000007C0000005C0000003C0000097
:1006300001C000008CEB90E024EAFC012083000064
:100640008CEB90E0FC0180818823D4F789EB90E06B
:10065000FC018081887F80933C0280913C02882F3E
:1006600090E08031910549F088339105D1F28830CE
:10067000910519F08FEF9FEFF7C000008BEB90E032
:100680002D81FC0120838CEB90E024E8FC01208389
:1006900000008CEB90E0FC0180818823D4F789EB8B
:1006A00090E0FC018081887F80933C0280913C0235
:1006B000882F90E08032910509F4A5CF8833910509
:1006C00009F4B1CF8831910509F0C9C000008BEB66
:1006D00090E02E81FC0120838CEB90E024E8FC016B
:1006E000208300008CEB90E0FC0180818823D4F70C
:1006F00089EB90E0FC018081887F80933C028091AF
:100700003C02882F90E08033910509F49DC0883326
:10071000910509F48ACF8832910509F0A0C0000044
:100720008CEB90E024EAFC01208300008CEB90E04D
:10073000FC0180818823D4F789EB90E0FC01808163
:10074000887F80933C0280913C02882F90E080312A
:10075000910541F08833910509F469CF88309105FE
:1007600009F07DC000008BEB90E02D812160FC0141
:1007700020838CEB90E024E8FC01208300008CEBCC
:1007800090E0FC0180818823D4F789EB90E0FC01A4
:100790008081887F80933C0280913C02882F90E08A
:1007A0008034910549F08834910509F44FC08833AD
:1007B000910509F43ECF53C0000084EC89833FC00B
:1007C0008F81813011F484E889838CEB90E029815A
:1007D000FC01208300008CEB90E0FC0180818823E9
:1007E000D4F789EB90E0FC018081887F80933C0204
:1007F00080913C02882F90E08035910521F088356A
:100800009105C1F41F828BEB90E0FC01208188856B
:100810009985FC0120838885998501969987888729
:100820008B819C8101969C838B8380913C028835CF
:1008300011F40DC014C000008F8181508F838F810F
:10084000882309F0BDCF03C0000001C000008CEB7D
:1008500090E024E9FC0120838B819C8105C08FEF0F
:100860009FEF9C838B83F3CF29960FB6F894DEBF5E
:100870000FBECDBFDF91CF910895CF93DF9300D00E
:1008800000D0CDB7DEB79C838B837E836D831982C6
:100890001A821A8275C089818295807F89838A81B4
:1008A000882F90E02B813C81820F931FFC01808177
:1008B0008033D4F08A81882F90E02B813C81820F95
:1008C000931FFC0180818A337CF48A81882F90E019
:1008D0002B813C81820F931FFC018081982F89819D
:1008E000890F8053898349C08A81882F90E02B81AA
:1008F0003C81820F931FFC0180818134D4F08A8176
:10090000882F90E02B813C81820F931FFC01808116
:1009100087347CF48A81882F90E02B813C81820F80
:10092000931FFC018081982F8981890F87538983C8
:1009300024C08A81882F90E02B813C81820F931FF5
:10094000FC0180818136CCF08A81882F90E02B8158
:100950003C81820F931FFC018081873674F48A8169
:10096000882F90E02B813C81820F931FFC018081B6
:10097000982F8981890F875589838A818F5F8A8320
:100980008A81823008F487CF8D819E812981FC0184
:100990002083000026960FB6F894DEBF0FBECDBFB1
:1009A000DF91CF910895CF93DF9300D01F92CDB701
:1009B000DEB78A837C836B838A8182958F70282F30
:1009C0008B819C81FC0120838B819C8101962A81F3
:1009D0002F70FC012083198235C08981882F90E017
:1009E0002B813C81820F931FFC0180818A30A4F00F
:1009F0008981882F90E02B813C81820F931F298170
:100A0000222F30E04B815C81240F351FF9012081BA
:100A1000295CFC01208313C08981882F90E02B8101
:100A20003C81820F931F2981222F30E04B815C8112
:100A3000240F351FF9012081205DFC01208389816D
:100A40008F5F89838981823040F20F900F900F90E1
:100A50000F90DF91CF910895CF93DF93CDB7DEB79D
:100A60002C970FB6F894DEBF0FBECDBF9B878A8749
:100A70006C871D821E821F82188619861B821A822D
:100A80008A859B85FC018081992787FD9095823519
:100A9000910509F48DC08735910509F0E7C08C8573
:100AA000823040F08C85882F90E0019781709927E3
:100AB000009719F08FEF9FEFDEC08C85882F90E0B4
:100AC000039799230CF40196959587958D838D81D5
:100AD000853018F08EEF9FEFCEC08A859B850196FA
:100AE0009E012C5F3F4FB9010E943D04198218C03E
:100AF0008981882F90E09E012A5F3F4F280F391F80
:100B00008981882F90E0880F991F03964A855B851D
:100B1000840F951FB9010E943D0489818F5F8983ED
:100B20008D819981981720F33D812C81CE01069605
:100B3000AC01632F822F0E94FF019B838A833D813A
:100B40002C81CE010696AC01632F822F0E94EF020A
:100B50009B838A836DE087E192E00E9411011982F4
:100B60001DC08981882F90E09E012A5F3F4F820F30
:100B7000931FFC0120818A859B85BC01822F0E94E6
:100B8000D3048A859B8562E00E94110161E085E2C1
:100B900092E00E94110189818F5F89838D81998103
:100BA0009817F8F262E087E292E00E94110161C0BA
:100BB0008C85823040F08C85882F90E00197817081
:100BC0009927009719F08FEF9FEF55C08A859B8575
:100BD00001969E012C5F3F4FB9010E943D048A851A
:100BE0009B8503969E012B5F3F4FB9010E943D04F8
:100BF0008D81853010F084E08D833D812C81CE0184
:100C00000696AC01632F822F0E94EF029B838A839A
:100C10006CE08AE292E00E94110119821DC0898174
:100C2000882F90E09E012A5F3F4F820F931FFC01A7
:100C300020818A859B85BC01822F0E94D3048A85EE
:100C40009B8562E00E94110161E085E292E00E94D2
:100C5000110189818F5F89838D8199819817F8F2BD
:100C600062E087E292E00E94110103C08EEF9FEFE5
:100C700002C080E090E02C960FB6F894DEBF0FBE65
:100C8000CDBFDF91CF910895FC0101900020E9F7DD
:0E0C9000809590958E0F9F1F0895F894FFCFCA
:100C9E000000000200000000CF000000000073748E
:100CAE0061727465640A0077726974652072657387
:100CBE00756C743A0020000D0A0072656164207232
:080CCE006573756C743A0000B7
:00000001FF
